{
	"Contracts/BasicVault.sol": {
		"BasicVault": {
			"abi": [
				{
					"inputs": [],
					"stateMutability": "nonpayable",
					"type": "constructor"
				},
				{
					"inputs": [],
					"name": "Vault_AmountZero",
					"type": "error"
				},
				{
					"inputs": [],
					"name": "Vault_ErrorOnTransfer",
					"type": "error"
				},
				{
					"inputs": [],
					"name": "Vault_InsufficientBalance",
					"type": "error"
				},
				{
					"inputs": [],
					"name": "Vault_NoUsers",
					"type": "error"
				},
				{
					"inputs": [],
					"name": "Vault_NotOwner",
					"type": "error"
				},
				{
					"anonymous": false,
					"inputs": [
						{
							"indexed": false,
							"internalType": "address",
							"name": "_user",
							"type": "address"
						},
						{
							"indexed": false,
							"internalType": "uint256",
							"name": "_amount",
							"type": "uint256"
						}
					],
					"name": "Deposit",
					"type": "event"
				},
				{
					"anonymous": false,
					"inputs": [
						{
							"indexed": false,
							"internalType": "address",
							"name": "_user",
							"type": "address"
						},
						{
							"indexed": false,
							"internalType": "uint256",
							"name": "_amount",
							"type": "uint256"
						}
					],
					"name": "Withdraw",
					"type": "event"
				},
				{
					"anonymous": false,
					"inputs": [
						{
							"indexed": false,
							"internalType": "address",
							"name": "_user",
							"type": "address"
						}
					],
					"name": "WithdrawAll",
					"type": "event"
				},
				{
					"inputs": [
						{
							"internalType": "address",
							"name": "_user",
							"type": "address"
						}
					],
					"name": "balanceOf",
					"outputs": [
						{
							"internalType": "uint256",
							"name": "",
							"type": "uint256"
						}
					],
					"stateMutability": "view",
					"type": "function"
				},
				{
					"inputs": [
						{
							"internalType": "address",
							"name": "_user",
							"type": "address"
						},
						{
							"internalType": "uint256",
							"name": "_amount",
							"type": "uint256"
						}
					],
					"name": "deposit",
					"outputs": [],
					"stateMutability": "payable",
					"type": "function"
				},
				{
					"inputs": [],
					"name": "usersInVault",
					"outputs": [
						{
							"internalType": "uint256",
							"name": "",
							"type": "uint256"
						}
					],
					"stateMutability": "view",
					"type": "function"
				},
				{
					"inputs": [
						{
							"internalType": "address",
							"name": "_user",
							"type": "address"
						},
						{
							"internalType": "uint256",
							"name": "_amount",
							"type": "uint256"
						}
					],
					"name": "withdraw",
					"outputs": [],
					"stateMutability": "nonpayable",
					"type": "function"
				},
				{
					"inputs": [
						{
							"internalType": "address",
							"name": "_user",
							"type": "address"
						}
					],
					"name": "withdrawAll",
					"outputs": [],
					"stateMutability": "nonpayable",
					"type": "function"
				}
			],
			"devdoc": {
				"kind": "dev",
				"methods": {},
				"version": 1
			},
			"evm": {
				"assembly": "    /* \"Contracts/BasicVault.sol\":256:2315  contract BasicVault is IBasicVault {... */\n  mstore(0x40, 0x80)\n    /* \"Contracts/BasicVault.sol\":439:446  1 ether */\n  0x0de0b6b3a7640000\n    /* \"Contracts/BasicVault.sol\":420:446  uint private ETH = 1 ether */\n  0x03\n  sstore\n    /* \"Contracts/BasicVault.sol\":455:505  constructor(){... */\n  callvalue\n  dup1\n  iszero\n  tag_1\n  jumpi\n  0x00\n  dup1\n  revert\ntag_1:\n  pop\n    /* \"Contracts/BasicVault.sol\":487:497  msg.sender */\n  caller\n    /* \"Contracts/BasicVault.sol\":479:484  OWNER */\n  0x00\n  dup1\n    /* \"Contracts/BasicVault.sol\":479:497  OWNER = msg.sender */\n  0x0100\n  exp\n  dup2\n  sload\n  dup2\n  0xffffffffffffffffffffffffffffffffffffffff\n  mul\n  not\n  and\n  swap1\n  dup4\n  0xffffffffffffffffffffffffffffffffffffffff\n  and\n  mul\n  or\n  swap1\n  sstore\n  pop\n    /* \"Contracts/BasicVault.sol\":256:2315  contract BasicVault is IBasicVault {... */\n  dataSize(sub_0)\n  dup1\n  dataOffset(sub_0)\n  0x00\n  codecopy\n  0x00\n  return\nstop\n\nsub_0: assembly {\n        /* \"Contracts/BasicVault.sol\":256:2315  contract BasicVault is IBasicVault {... */\n      mstore(0x40, 0x80)\n      jumpi(tag_1, lt(calldatasize, 0x04))\n      shr(0xe0, calldataload(0x00))\n      dup1\n      0x364da478\n      eq\n      tag_2\n      jumpi\n      dup1\n      0x47e7ef24\n      eq\n      tag_3\n      jumpi\n      dup1\n      0x70a08231\n      eq\n      tag_4\n      jumpi\n      dup1\n      0xf3fef3a3\n      eq\n      tag_5\n      jumpi\n      dup1\n      0xfa09e630\n      eq\n      tag_6\n      jumpi\n    tag_1:\n      0x00\n      dup1\n      revert\n        /* \"Contracts/BasicVault.sol\":389:413  uint public usersInVault */\n    tag_2:\n      callvalue\n      dup1\n      iszero\n      tag_7\n      jumpi\n      0x00\n      dup1\n      revert\n    tag_7:\n      pop\n      tag_8\n      tag_9\n      jump\t// in\n    tag_8:\n      mload(0x40)\n      tag_10\n      swap2\n      swap1\n      tag_11\n      jump\t// in\n    tag_10:\n      mload(0x40)\n      dup1\n      swap2\n      sub\n      swap1\n      return\n        /* \"Contracts/BasicVault.sol\":635:1049  function deposit(address _user, uint _amount) external payable {... */\n    tag_3:\n      tag_12\n      0x04\n      dup1\n      calldatasize\n      sub\n      dup2\n      add\n      swap1\n      tag_13\n      swap2\n      swap1\n      tag_14\n      jump\t// in\n    tag_13:\n      tag_15\n      jump\t// in\n    tag_12:\n      stop\n        /* \"Contracts/BasicVault.sol\":1688:1792  function balanceOf(address _user) external view returns (uint) {... */\n    tag_4:\n      callvalue\n      dup1\n      iszero\n      tag_16\n      jumpi\n      0x00\n      dup1\n      revert\n    tag_16:\n      pop\n      tag_17\n      0x04\n      dup1\n      calldatasize\n      sub\n      dup2\n      add\n      swap1\n      tag_18\n      swap2\n      swap1\n      tag_19\n      jump\t// in\n    tag_18:\n      tag_20\n      jump\t// in\n    tag_17:\n      mload(0x40)\n      tag_21\n      swap2\n      swap1\n      tag_11\n      jump\t// in\n    tag_21:\n      mload(0x40)\n      dup1\n      swap2\n      sub\n      swap1\n      return\n        /* \"Contracts/BasicVault.sol\":1057:1590  function withdraw(address _user, uint _amount) external onlyOwner {... */\n    tag_5:\n      callvalue\n      dup1\n      iszero\n      tag_22\n      jumpi\n      0x00\n      dup1\n      revert\n    tag_22:\n      pop\n      tag_23\n      0x04\n      dup1\n      calldatasize\n      sub\n      dup2\n      add\n      swap1\n      tag_24\n      swap2\n      swap1\n      tag_14\n      jump\t// in\n    tag_24:\n      tag_25\n      jump\t// in\n    tag_23:\n      stop\n        /* \"Contracts/BasicVault.sol\":1598:1680  function withdrawAll(address _user) external {... */\n    tag_6:\n      callvalue\n      dup1\n      iszero\n      tag_26\n      jumpi\n      0x00\n      dup1\n      revert\n    tag_26:\n      pop\n      tag_27\n      0x04\n      dup1\n      calldatasize\n      sub\n      dup2\n      add\n      swap1\n      tag_28\n      swap2\n      swap1\n      tag_19\n      jump\t// in\n    tag_28:\n      tag_29\n      jump\t// in\n    tag_27:\n      stop\n        /* \"Contracts/BasicVault.sol\":389:413  uint public usersInVault */\n    tag_9:\n      sload(0x02)\n      dup2\n      jump\t// out\n        /* \"Contracts/BasicVault.sol\":635:1049  function deposit(address _user, uint _amount) external payable {... */\n    tag_15:\n        /* \"Contracts/BasicVault.sol\":709:723  uint amountEth */\n      0x00\n        /* \"Contracts/BasicVault.sol\":736:739  ETH */\n      sload(0x03)\n        /* \"Contracts/BasicVault.sol\":726:733  _amount */\n      dup3\n        /* \"Contracts/BasicVault.sol\":726:739  _amount * ETH */\n      tag_31\n      swap2\n      swap1\n      tag_32\n      jump\t// in\n    tag_31:\n        /* \"Contracts/BasicVault.sol\":709:739  uint amountEth = _amount * ETH */\n      swap1\n      pop\n        /* \"Contracts/BasicVault.sol\":766:767  0 */\n      0x00\n        /* \"Contracts/BasicVault.sol\":753:762  amountEth */\n      dup2\n        /* \"Contracts/BasicVault.sol\":753:767  amountEth == 0 */\n      sub\n        /* \"Contracts/BasicVault.sol\":750:881  if(amountEth == 0) {... */\n      tag_33\n      jumpi\n        /* \"Contracts/BasicVault.sol\":851:869  Vault_AmountZero() */\n      mload(0x40)\n      0x6a37442800000000000000000000000000000000000000000000000000000000\n      dup2\n      mstore\n      0x04\n      add\n      mload(0x40)\n      dup1\n      swap2\n      sub\n      swap1\n      revert\n        /* \"Contracts/BasicVault.sol\":750:881  if(amountEth == 0) {... */\n    tag_33:\n        /* \"Contracts/BasicVault.sol\":915:916  0 */\n      0x00\n        /* \"Contracts/BasicVault.sol\":896:904  balances */\n      0x01\n        /* \"Contracts/BasicVault.sol\":896:911  balances[_user] */\n      0x00\n        /* \"Contracts/BasicVault.sol\":905:910  _user */\n      dup6\n        /* \"Contracts/BasicVault.sol\":896:911  balances[_user] */\n      0xffffffffffffffffffffffffffffffffffffffff\n      and\n      0xffffffffffffffffffffffffffffffffffffffff\n      and\n      dup2\n      mstore\n      0x20\n      add\n      swap1\n      dup2\n      mstore\n      0x20\n      add\n      0x00\n      keccak256\n      sload\n        /* \"Contracts/BasicVault.sol\":896:916  balances[_user] == 0 */\n      sub\n        /* \"Contracts/BasicVault.sol\":893:959  if(balances[_user] == 0) {... */\n      tag_34\n      jumpi\n        /* \"Contracts/BasicVault.sol\":933:945  usersInVault */\n      0x02\n      0x00\n        /* \"Contracts/BasicVault.sol\":933:947  usersInVault++ */\n      dup2\n      sload\n      dup1\n      swap3\n      swap2\n      swap1\n      tag_35\n      swap1\n      tag_36\n      jump\t// in\n    tag_35:\n      swap2\n      swap1\n      pop\n      sstore\n      pop\n        /* \"Contracts/BasicVault.sol\":893:959  if(balances[_user] == 0) {... */\n    tag_34:\n        /* \"Contracts/BasicVault.sol\":991:1000  amountEth */\n      dup1\n        /* \"Contracts/BasicVault.sol\":972:980  balances */\n      0x01\n        /* \"Contracts/BasicVault.sol\":972:987  balances[_user] */\n      0x00\n        /* \"Contracts/BasicVault.sol\":981:986  _user */\n      dup6\n        /* \"Contracts/BasicVault.sol\":972:987  balances[_user] */\n      0xffffffffffffffffffffffffffffffffffffffff\n      and\n      0xffffffffffffffffffffffffffffffffffffffff\n      and\n      dup2\n      mstore\n      0x20\n      add\n      swap1\n      dup2\n      mstore\n      0x20\n      add\n      0x00\n      keccak256\n      0x00\n        /* \"Contracts/BasicVault.sol\":972:1000  balances[_user] += amountEth */\n      dup3\n      dup3\n      sload\n      tag_37\n      swap2\n      swap1\n      tag_38\n      jump\t// in\n    tag_37:\n      swap3\n      pop\n      pop\n      dup2\n      swap1\n      sstore\n      pop\n        /* \"Contracts/BasicVault.sol\":1016:1041  Deposit(_user, amountEth) */\n      0xe1fffcc4923d04b559f4d29a8bfc6cda04eb5b0d3c460751c2402c5c5cc9109c\n        /* \"Contracts/BasicVault.sol\":1024:1029  _user */\n      dup4\n        /* \"Contracts/BasicVault.sol\":1031:1040  amountEth */\n      dup3\n        /* \"Contracts/BasicVault.sol\":1016:1041  Deposit(_user, amountEth) */\n      mload(0x40)\n      tag_39\n      swap3\n      swap2\n      swap1\n      tag_40\n      jump\t// in\n    tag_39:\n      mload(0x40)\n      dup1\n      swap2\n      sub\n      swap1\n      log1\n        /* \"Contracts/BasicVault.sol\":698:1049  {... */\n      pop\n        /* \"Contracts/BasicVault.sol\":635:1049  function deposit(address _user, uint _amount) external payable {... */\n      pop\n      pop\n      jump\t// out\n        /* \"Contracts/BasicVault.sol\":1688:1792  function balanceOf(address _user) external view returns (uint) {... */\n    tag_20:\n        /* \"Contracts/BasicVault.sol\":1745:1749  uint */\n      0x00\n        /* \"Contracts/BasicVault.sol\":1769:1777  balances */\n      0x01\n        /* \"Contracts/BasicVault.sol\":1769:1784  balances[_user] */\n      0x00\n        /* \"Contracts/BasicVault.sol\":1778:1783  _user */\n      dup4\n        /* \"Contracts/BasicVault.sol\":1769:1784  balances[_user] */\n      0xffffffffffffffffffffffffffffffffffffffff\n      and\n      0xffffffffffffffffffffffffffffffffffffffff\n      and\n      dup2\n      mstore\n      0x20\n      add\n      swap1\n      dup2\n      mstore\n      0x20\n      add\n      0x00\n      keccak256\n      sload\n        /* \"Contracts/BasicVault.sol\":1762:1784  return balances[_user] */\n      swap1\n      pop\n        /* \"Contracts/BasicVault.sol\":1688:1792  function balanceOf(address _user) external view returns (uint) {... */\n      swap2\n      swap1\n      pop\n      jump\t// out\n        /* \"Contracts/BasicVault.sol\":1057:1590  function withdraw(address _user, uint _amount) external onlyOwner {... */\n    tag_25:\n        /* \"Contracts/BasicVault.sol\":563:568  OWNER */\n      0x00\n      dup1\n      sload\n      swap1\n      0x0100\n      exp\n      swap1\n      div\n      0xffffffffffffffffffffffffffffffffffffffff\n      and\n        /* \"Contracts/BasicVault.sol\":549:568  msg.sender != OWNER */\n      0xffffffffffffffffffffffffffffffffffffffff\n      and\n        /* \"Contracts/BasicVault.sol\":549:559  msg.sender */\n      caller\n        /* \"Contracts/BasicVault.sol\":549:568  msg.sender != OWNER */\n      0xffffffffffffffffffffffffffffffffffffffff\n      and\n      eq\n        /* \"Contracts/BasicVault.sol\":545:607  if (msg.sender != OWNER) ... */\n      tag_43\n      jumpi\n        /* \"Contracts/BasicVault.sol\":591:607  Vault_NotOwner() */\n      mload(0x40)\n      0xa1441bed00000000000000000000000000000000000000000000000000000000\n      dup2\n      mstore\n      0x04\n      add\n      mload(0x40)\n      dup1\n      swap2\n      sub\n      swap1\n      revert\n        /* \"Contracts/BasicVault.sol\":545:607  if (msg.sender != OWNER) ... */\n    tag_43:\n        /* \"Contracts/BasicVault.sol\":1134:1148  uint amountEth */\n      0x00\n        /* \"Contracts/BasicVault.sol\":1161:1164  ETH */\n      sload(0x03)\n        /* \"Contracts/BasicVault.sol\":1151:1158  _amount */\n      dup3\n        /* \"Contracts/BasicVault.sol\":1151:1164  _amount * ETH */\n      tag_45\n      swap2\n      swap1\n      tag_32\n      jump\t// in\n    tag_45:\n        /* \"Contracts/BasicVault.sol\":1134:1164  uint amountEth = _amount * ETH */\n      swap1\n      pop\n        /* \"Contracts/BasicVault.sol\":1213:1214  0 */\n      0x00\n        /* \"Contracts/BasicVault.sol\":1199:1208  amountEth */\n      dup2\n        /* \"Contracts/BasicVault.sol\":1181:1189  balances */\n      0x01\n        /* \"Contracts/BasicVault.sol\":1181:1196  balances[_user] */\n      0x00\n        /* \"Contracts/BasicVault.sol\":1190:1195  _user */\n      dup7\n        /* \"Contracts/BasicVault.sol\":1181:1196  balances[_user] */\n      0xffffffffffffffffffffffffffffffffffffffff\n      and\n      0xffffffffffffffffffffffffffffffffffffffff\n      and\n      dup2\n      mstore\n      0x20\n      add\n      swap1\n      dup2\n      mstore\n      0x20\n      add\n      0x00\n      keccak256\n      sload\n        /* \"Contracts/BasicVault.sol\":1181:1208  balances[_user] - amountEth */\n      tag_46\n      swap2\n      swap1\n      tag_47\n      jump\t// in\n    tag_46:\n        /* \"Contracts/BasicVault.sol\":1180:1214  (balances[_user] - amountEth) >= 0 */\n      lt\n        /* \"Contracts/BasicVault.sol\":1177:1583  if((balances[_user] - amountEth) >= 0) {... */\n      tag_48\n      jumpi\n        /* \"Contracts/BasicVault.sol\":1250:1259  amountEth */\n      dup1\n        /* \"Contracts/BasicVault.sol\":1231:1239  balances */\n      0x01\n        /* \"Contracts/BasicVault.sol\":1231:1246  balances[_user] */\n      0x00\n        /* \"Contracts/BasicVault.sol\":1240:1245  _user */\n      dup6\n        /* \"Contracts/BasicVault.sol\":1231:1246  balances[_user] */\n      0xffffffffffffffffffffffffffffffffffffffff\n      and\n      0xffffffffffffffffffffffffffffffffffffffff\n      and\n      dup2\n      mstore\n      0x20\n      add\n      swap1\n      dup2\n      mstore\n      0x20\n      add\n      0x00\n      keccak256\n      0x00\n        /* \"Contracts/BasicVault.sol\":1231:1259  balances[_user] -= amountEth */\n      dup3\n      dup3\n      sload\n      tag_49\n      swap2\n      swap1\n      tag_47\n      jump\t// in\n    tag_49:\n      swap3\n      pop\n      pop\n      dup2\n      swap1\n      sstore\n      pop\n        /* \"Contracts/BasicVault.sol\":1277:1289  bool success */\n      0x00\n        /* \"Contracts/BasicVault.sol\":1303:1308  _user */\n      dup4\n        /* \"Contracts/BasicVault.sol\":1295:1314  payable(_user).call */\n      0xffffffffffffffffffffffffffffffffffffffff\n      and\n        /* \"Contracts/BasicVault.sol\":1322:1331  amountEth */\n      dup3\n        /* \"Contracts/BasicVault.sol\":1295:1336  payable(_user).call{value: amountEth}(\"\") */\n      mload(0x40)\n      tag_50\n      swap1\n      tag_51\n      jump\t// in\n    tag_50:\n      0x00\n      mload(0x40)\n      dup1\n      dup4\n      sub\n      dup2\n      dup6\n      dup8\n      gas\n      call\n      swap3\n      pop\n      pop\n      pop\n      returndatasize\n      dup1\n      0x00\n      dup2\n      eq\n      tag_54\n      jumpi\n      mload(0x40)\n      swap2\n      pop\n      and(add(returndatasize, 0x3f), not(0x1f))\n      dup3\n      add\n      0x40\n      mstore\n      returndatasize\n      dup3\n      mstore\n      returndatasize\n      0x00\n      0x20\n      dup5\n      add\n      returndatacopy\n      jump(tag_53)\n    tag_54:\n      0x60\n      swap2\n      pop\n    tag_53:\n      pop\n        /* \"Contracts/BasicVault.sol\":1276:1336  (bool success, ) = payable(_user).call{value: amountEth}(\"\") */\n      pop\n      swap1\n      pop\n        /* \"Contracts/BasicVault.sol\":1356:1363  success */\n      dup1\n        /* \"Contracts/BasicVault.sol\":1351:1395  if (!success) revert Vault_ErrorOnTransfer() */\n      tag_55\n      jumpi\n        /* \"Contracts/BasicVault.sol\":1372:1395  Vault_ErrorOnTransfer() */\n      mload(0x40)\n      0x75b40f8a00000000000000000000000000000000000000000000000000000000\n      dup2\n      mstore\n      0x04\n      add\n      mload(0x40)\n      dup1\n      swap2\n      sub\n      swap1\n      revert\n        /* \"Contracts/BasicVault.sol\":1351:1395  if (!success) revert Vault_ErrorOnTransfer() */\n    tag_55:\n        /* \"Contracts/BasicVault.sol\":1417:1443  Withdraw(_user, amountEth) */\n      0x884edad9ce6fa2440d8a54cc123490eb96d2768479d49ff9c7366125a9424364\n        /* \"Contracts/BasicVault.sol\":1426:1431  _user */\n      dup5\n        /* \"Contracts/BasicVault.sol\":1433:1442  amountEth */\n      dup4\n        /* \"Contracts/BasicVault.sol\":1417:1443  Withdraw(_user, amountEth) */\n      mload(0x40)\n      tag_56\n      swap3\n      swap2\n      swap1\n      tag_40\n      jump\t// in\n    tag_56:\n      mload(0x40)\n      dup1\n      swap2\n      sub\n      swap1\n      log1\n        /* \"Contracts/BasicVault.sol\":1216:1455  {... */\n      pop\n        /* \"Contracts/BasicVault.sol\":1177:1583  if((balances[_user] - amountEth) >= 0) {... */\n      jump(tag_57)\n    tag_48:\n        /* \"Contracts/BasicVault.sol\":1544:1571  Vault_InsufficientBalance() */\n      mload(0x40)\n      0x3b18d12000000000000000000000000000000000000000000000000000000000\n      dup2\n      mstore\n      0x04\n      add\n      mload(0x40)\n      dup1\n      swap2\n      sub\n      swap1\n      revert\n        /* \"Contracts/BasicVault.sol\":1177:1583  if((balances[_user] - amountEth) >= 0) {... */\n    tag_57:\n        /* \"Contracts/BasicVault.sol\":1123:1590  {... */\n      pop\n        /* \"Contracts/BasicVault.sol\":1057:1590  function withdraw(address _user, uint _amount) external onlyOwner {... */\n      pop\n      pop\n      jump\t// out\n        /* \"Contracts/BasicVault.sol\":1598:1680  function withdrawAll(address _user) external {... */\n    tag_29:\n        /* \"Contracts/BasicVault.sol\":1654:1672  _removeUser(_user) */\n      tag_59\n        /* \"Contracts/BasicVault.sol\":1666:1671  _user */\n      dup2\n        /* \"Contracts/BasicVault.sol\":1654:1665  _removeUser */\n      tag_60\n        /* \"Contracts/BasicVault.sol\":1654:1672  _removeUser(_user) */\n      jump\t// in\n    tag_59:\n        /* \"Contracts/BasicVault.sol\":1598:1680  function withdrawAll(address _user) external {... */\n      pop\n      jump\t// out\n        /* \"Contracts/BasicVault.sol\":1800:2312  function _removeUser(address _user) internal {... */\n    tag_60:\n        /* \"Contracts/BasicVault.sol\":1875:1876  0 */\n      0x00\n        /* \"Contracts/BasicVault.sol\":1859:1871  usersInVault */\n      sload(0x02)\n        /* \"Contracts/BasicVault.sol\":1859:1876  usersInVault == 0 */\n      sub\n        /* \"Contracts/BasicVault.sol\":1856:1927  if(usersInVault == 0) {... */\n      tag_62\n      jumpi\n        /* \"Contracts/BasicVault.sol\":1900:1915  Vault_NoUsers() */\n      mload(0x40)\n      0x646a6ae600000000000000000000000000000000000000000000000000000000\n      dup2\n      mstore\n      0x04\n      add\n      mload(0x40)\n      dup1\n      swap2\n      sub\n      swap1\n      revert\n        /* \"Contracts/BasicVault.sol\":1856:1927  if(usersInVault == 0) {... */\n    tag_62:\n        /* \"Contracts/BasicVault.sol\":1961:1962  0 */\n      0x00\n        /* \"Contracts/BasicVault.sol\":1942:1950  balances */\n      0x01\n        /* \"Contracts/BasicVault.sol\":1942:1957  balances[_user] */\n      0x00\n        /* \"Contracts/BasicVault.sol\":1951:1956  _user */\n      dup4\n        /* \"Contracts/BasicVault.sol\":1942:1957  balances[_user] */\n      0xffffffffffffffffffffffffffffffffffffffff\n      and\n      0xffffffffffffffffffffffffffffffffffffffff\n      and\n      dup2\n      mstore\n      0x20\n      add\n      swap1\n      dup2\n      mstore\n      0x20\n      add\n      0x00\n      keccak256\n      sload\n        /* \"Contracts/BasicVault.sol\":1942:1962  balances[_user] == 0 */\n      sub\n        /* \"Contracts/BasicVault.sol\":1939:2025  if(balances[_user] == 0) {... */\n      tag_63\n      jumpi\n        /* \"Contracts/BasicVault.sol\":1986:2013  Vault_InsufficientBalance() */\n      mload(0x40)\n      0x3b18d12000000000000000000000000000000000000000000000000000000000\n      dup2\n      mstore\n      0x04\n      add\n      mload(0x40)\n      dup1\n      swap2\n      sub\n      swap1\n      revert\n        /* \"Contracts/BasicVault.sol\":1939:2025  if(balances[_user] == 0) {... */\n    tag_63:\n        /* \"Contracts/BasicVault.sol\":2037:2053  uint userBalance */\n      0x00\n        /* \"Contracts/BasicVault.sol\":2056:2064  balances */\n      0x01\n        /* \"Contracts/BasicVault.sol\":2056:2071  balances[_user] */\n      0x00\n        /* \"Contracts/BasicVault.sol\":2065:2070  _user */\n      dup4\n        /* \"Contracts/BasicVault.sol\":2056:2071  balances[_user] */\n      0xffffffffffffffffffffffffffffffffffffffff\n      and\n      0xffffffffffffffffffffffffffffffffffffffff\n      and\n      dup2\n      mstore\n      0x20\n      add\n      swap1\n      dup2\n      mstore\n      0x20\n      add\n      0x00\n      keccak256\n      sload\n        /* \"Contracts/BasicVault.sol\":2037:2071  uint userBalance = balances[_user] */\n      swap1\n      pop\n        /* \"Contracts/BasicVault.sol\":2102:2103  0 */\n      0x00\n        /* \"Contracts/BasicVault.sol\":2084:2092  balances */\n      0x01\n        /* \"Contracts/BasicVault.sol\":2084:2099  balances[_user] */\n      0x00\n        /* \"Contracts/BasicVault.sol\":2093:2098  _user */\n      dup5\n        /* \"Contracts/BasicVault.sol\":2084:2099  balances[_user] */\n      0xffffffffffffffffffffffffffffffffffffffff\n      and\n      0xffffffffffffffffffffffffffffffffffffffff\n      and\n      dup2\n      mstore\n      0x20\n      add\n      swap1\n      dup2\n      mstore\n      0x20\n      add\n      0x00\n      keccak256\n        /* \"Contracts/BasicVault.sol\":2084:2103  balances[_user] = 0 */\n      dup2\n      swap1\n      sstore\n      pop\n        /* \"Contracts/BasicVault.sol\":2114:2126  usersInVault */\n      0x02\n      0x00\n        /* \"Contracts/BasicVault.sol\":2114:2128  usersInVault-- */\n      dup2\n      sload\n      dup1\n      swap3\n      swap2\n      swap1\n      tag_64\n      swap1\n      tag_65\n      jump\t// in\n    tag_64:\n      swap2\n      swap1\n      pop\n      sstore\n      pop\n        /* \"Contracts/BasicVault.sol\":2142:2154  bool success */\n      0x00\n        /* \"Contracts/BasicVault.sol\":2168:2173  _user */\n      dup3\n        /* \"Contracts/BasicVault.sol\":2160:2179  payable(_user).call */\n      0xffffffffffffffffffffffffffffffffffffffff\n      and\n        /* \"Contracts/BasicVault.sol\":2187:2198  userBalance */\n      dup3\n        /* \"Contracts/BasicVault.sol\":2160:2203  payable(_user).call{value: userBalance}(\"\") */\n      mload(0x40)\n      tag_66\n      swap1\n      tag_51\n      jump\t// in\n    tag_66:\n      0x00\n      mload(0x40)\n      dup1\n      dup4\n      sub\n      dup2\n      dup6\n      dup8\n      gas\n      call\n      swap3\n      pop\n      pop\n      pop\n      returndatasize\n      dup1\n      0x00\n      dup2\n      eq\n      tag_69\n      jumpi\n      mload(0x40)\n      swap2\n      pop\n      and(add(returndatasize, 0x3f), not(0x1f))\n      dup3\n      add\n      0x40\n      mstore\n      returndatasize\n      dup3\n      mstore\n      returndatasize\n      0x00\n      0x20\n      dup5\n      add\n      returndatacopy\n      jump(tag_68)\n    tag_69:\n      0x60\n      swap2\n      pop\n    tag_68:\n      pop\n        /* \"Contracts/BasicVault.sol\":2141:2203  (bool success, ) = payable(_user).call{value: userBalance}(\"\") */\n      pop\n      swap1\n      pop\n        /* \"Contracts/BasicVault.sol\":2219:2226  success */\n      dup1\n        /* \"Contracts/BasicVault.sol\":2214:2258  if (!success) revert Vault_ErrorOnTransfer() */\n      tag_70\n      jumpi\n        /* \"Contracts/BasicVault.sol\":2235:2258  Vault_ErrorOnTransfer() */\n      mload(0x40)\n      0x75b40f8a00000000000000000000000000000000000000000000000000000000\n      dup2\n      mstore\n      0x04\n      add\n      mload(0x40)\n      dup1\n      swap2\n      sub\n      swap1\n      revert\n        /* \"Contracts/BasicVault.sol\":2214:2258  if (!success) revert Vault_ErrorOnTransfer() */\n    tag_70:\n        /* \"Contracts/BasicVault.sol\":2276:2304  Withdraw(_user, userBalance) */\n      0x884edad9ce6fa2440d8a54cc123490eb96d2768479d49ff9c7366125a9424364\n        /* \"Contracts/BasicVault.sol\":2285:2290  _user */\n      dup4\n        /* \"Contracts/BasicVault.sol\":2292:2303  userBalance */\n      dup4\n        /* \"Contracts/BasicVault.sol\":2276:2304  Withdraw(_user, userBalance) */\n      mload(0x40)\n      tag_71\n      swap3\n      swap2\n      swap1\n      tag_40\n      jump\t// in\n    tag_71:\n      mload(0x40)\n      dup1\n      swap2\n      sub\n      swap1\n      log1\n        /* \"Contracts/BasicVault.sol\":1845:2312  {... */\n      pop\n      pop\n        /* \"Contracts/BasicVault.sol\":1800:2312  function _removeUser(address _user) internal {... */\n      pop\n      jump\t// out\n        /* \"#utility.yul\":7:84   */\n    tag_72:\n        /* \"#utility.yul\":44:51   */\n      0x00\n        /* \"#utility.yul\":73:78   */\n      dup2\n        /* \"#utility.yul\":62:78   */\n      swap1\n      pop\n        /* \"#utility.yul\":7:84   */\n      swap2\n      swap1\n      pop\n      jump\t// out\n        /* \"#utility.yul\":90:208   */\n    tag_73:\n        /* \"#utility.yul\":177:201   */\n      tag_91\n        /* \"#utility.yul\":195:200   */\n      dup2\n        /* \"#utility.yul\":177:201   */\n      tag_72\n      jump\t// in\n    tag_91:\n        /* \"#utility.yul\":172:175   */\n      dup3\n        /* \"#utility.yul\":165:202   */\n      mstore\n        /* \"#utility.yul\":90:208   */\n      pop\n      pop\n      jump\t// out\n        /* \"#utility.yul\":214:436   */\n    tag_11:\n        /* \"#utility.yul\":307:311   */\n      0x00\n        /* \"#utility.yul\":345:347   */\n      0x20\n        /* \"#utility.yul\":334:343   */\n      dup3\n        /* \"#utility.yul\":330:348   */\n      add\n        /* \"#utility.yul\":322:348   */\n      swap1\n      pop\n        /* \"#utility.yul\":358:429   */\n      tag_93\n        /* \"#utility.yul\":426:427   */\n      0x00\n        /* \"#utility.yul\":415:424   */\n      dup4\n        /* \"#utility.yul\":411:428   */\n      add\n        /* \"#utility.yul\":402:408   */\n      dup5\n        /* \"#utility.yul\":358:429   */\n      tag_73\n      jump\t// in\n    tag_93:\n        /* \"#utility.yul\":214:436   */\n      swap3\n      swap2\n      pop\n      pop\n      jump\t// out\n        /* \"#utility.yul\":523:640   */\n    tag_75:\n        /* \"#utility.yul\":632:633   */\n      0x00\n        /* \"#utility.yul\":629:630   */\n      dup1\n        /* \"#utility.yul\":622:634   */\n      revert\n        /* \"#utility.yul\":769:895   */\n    tag_77:\n        /* \"#utility.yul\":806:813   */\n      0x00\n        /* \"#utility.yul\":846:888   */\n      0xffffffffffffffffffffffffffffffffffffffff\n        /* \"#utility.yul\":839:844   */\n      dup3\n        /* \"#utility.yul\":835:889   */\n      and\n        /* \"#utility.yul\":824:889   */\n      swap1\n      pop\n        /* \"#utility.yul\":769:895   */\n      swap2\n      swap1\n      pop\n      jump\t// out\n        /* \"#utility.yul\":901:997   */\n    tag_78:\n        /* \"#utility.yul\":938:945   */\n      0x00\n        /* \"#utility.yul\":967:991   */\n      tag_99\n        /* \"#utility.yul\":985:990   */\n      dup3\n        /* \"#utility.yul\":967:991   */\n      tag_77\n      jump\t// in\n    tag_99:\n        /* \"#utility.yul\":956:991   */\n      swap1\n      pop\n        /* \"#utility.yul\":901:997   */\n      swap2\n      swap1\n      pop\n      jump\t// out\n        /* \"#utility.yul\":1003:1125   */\n    tag_79:\n        /* \"#utility.yul\":1076:1100   */\n      tag_101\n        /* \"#utility.yul\":1094:1099   */\n      dup2\n        /* \"#utility.yul\":1076:1100   */\n      tag_78\n      jump\t// in\n    tag_101:\n        /* \"#utility.yul\":1069:1074   */\n      dup2\n        /* \"#utility.yul\":1066:1101   */\n      eq\n        /* \"#utility.yul\":1056:1119   */\n      tag_102\n      jumpi\n        /* \"#utility.yul\":1115:1116   */\n      0x00\n        /* \"#utility.yul\":1112:1113   */\n      dup1\n        /* \"#utility.yul\":1105:1117   */\n      revert\n        /* \"#utility.yul\":1056:1119   */\n    tag_102:\n        /* \"#utility.yul\":1003:1125   */\n      pop\n      jump\t// out\n        /* \"#utility.yul\":1131:1270   */\n    tag_80:\n        /* \"#utility.yul\":1177:1182   */\n      0x00\n        /* \"#utility.yul\":1215:1221   */\n      dup2\n        /* \"#utility.yul\":1202:1222   */\n      calldataload\n        /* \"#utility.yul\":1193:1222   */\n      swap1\n      pop\n        /* \"#utility.yul\":1231:1264   */\n      tag_104\n        /* \"#utility.yul\":1258:1263   */\n      dup2\n        /* \"#utility.yul\":1231:1264   */\n      tag_79\n      jump\t// in\n    tag_104:\n        /* \"#utility.yul\":1131:1270   */\n      swap3\n      swap2\n      pop\n      pop\n      jump\t// out\n        /* \"#utility.yul\":1276:1398   */\n    tag_81:\n        /* \"#utility.yul\":1349:1373   */\n      tag_106\n        /* \"#utility.yul\":1367:1372   */\n      dup2\n        /* \"#utility.yul\":1349:1373   */\n      tag_72\n      jump\t// in\n    tag_106:\n        /* \"#utility.yul\":1342:1347   */\n      dup2\n        /* \"#utility.yul\":1339:1374   */\n      eq\n        /* \"#utility.yul\":1329:1392   */\n      tag_107\n      jumpi\n        /* \"#utility.yul\":1388:1389   */\n      0x00\n        /* \"#utility.yul\":1385:1386   */\n      dup1\n        /* \"#utility.yul\":1378:1390   */\n      revert\n        /* \"#utility.yul\":1329:1392   */\n    tag_107:\n        /* \"#utility.yul\":1276:1398   */\n      pop\n      jump\t// out\n        /* \"#utility.yul\":1404:1543   */\n    tag_82:\n        /* \"#utility.yul\":1450:1455   */\n      0x00\n        /* \"#utility.yul\":1488:1494   */\n      dup2\n        /* \"#utility.yul\":1475:1495   */\n      calldataload\n        /* \"#utility.yul\":1466:1495   */\n      swap1\n      pop\n        /* \"#utility.yul\":1504:1537   */\n      tag_109\n        /* \"#utility.yul\":1531:1536   */\n      dup2\n        /* \"#utility.yul\":1504:1537   */\n      tag_81\n      jump\t// in\n    tag_109:\n        /* \"#utility.yul\":1404:1543   */\n      swap3\n      swap2\n      pop\n      pop\n      jump\t// out\n        /* \"#utility.yul\":1549:2023   */\n    tag_14:\n        /* \"#utility.yul\":1617:1623   */\n      0x00\n        /* \"#utility.yul\":1625:1631   */\n      dup1\n        /* \"#utility.yul\":1674:1676   */\n      0x40\n        /* \"#utility.yul\":1662:1671   */\n      dup4\n        /* \"#utility.yul\":1653:1660   */\n      dup6\n        /* \"#utility.yul\":1649:1672   */\n      sub\n        /* \"#utility.yul\":1645:1677   */\n      slt\n        /* \"#utility.yul\":1642:1761   */\n      iszero\n      tag_111\n      jumpi\n        /* \"#utility.yul\":1680:1759   */\n      tag_112\n      tag_75\n      jump\t// in\n    tag_112:\n        /* \"#utility.yul\":1642:1761   */\n    tag_111:\n        /* \"#utility.yul\":1800:1801   */\n      0x00\n        /* \"#utility.yul\":1825:1878   */\n      tag_113\n        /* \"#utility.yul\":1870:1877   */\n      dup6\n        /* \"#utility.yul\":1861:1867   */\n      dup3\n        /* \"#utility.yul\":1850:1859   */\n      dup7\n        /* \"#utility.yul\":1846:1868   */\n      add\n        /* \"#utility.yul\":1825:1878   */\n      tag_80\n      jump\t// in\n    tag_113:\n        /* \"#utility.yul\":1815:1878   */\n      swap3\n      pop\n        /* \"#utility.yul\":1771:1888   */\n      pop\n        /* \"#utility.yul\":1927:1929   */\n      0x20\n        /* \"#utility.yul\":1953:2006   */\n      tag_114\n        /* \"#utility.yul\":1998:2005   */\n      dup6\n        /* \"#utility.yul\":1989:1995   */\n      dup3\n        /* \"#utility.yul\":1978:1987   */\n      dup7\n        /* \"#utility.yul\":1974:1996   */\n      add\n        /* \"#utility.yul\":1953:2006   */\n      tag_82\n      jump\t// in\n    tag_114:\n        /* \"#utility.yul\":1943:2006   */\n      swap2\n      pop\n        /* \"#utility.yul\":1898:2016   */\n      pop\n        /* \"#utility.yul\":1549:2023   */\n      swap3\n      pop\n      swap3\n      swap1\n      pop\n      jump\t// out\n        /* \"#utility.yul\":2029:2358   */\n    tag_19:\n        /* \"#utility.yul\":2088:2094   */\n      0x00\n        /* \"#utility.yul\":2137:2139   */\n      0x20\n        /* \"#utility.yul\":2125:2134   */\n      dup3\n        /* \"#utility.yul\":2116:2123   */\n      dup5\n        /* \"#utility.yul\":2112:2135   */\n      sub\n        /* \"#utility.yul\":2108:2140   */\n      slt\n        /* \"#utility.yul\":2105:2224   */\n      iszero\n      tag_116\n      jumpi\n        /* \"#utility.yul\":2143:2222   */\n      tag_117\n      tag_75\n      jump\t// in\n    tag_117:\n        /* \"#utility.yul\":2105:2224   */\n    tag_116:\n        /* \"#utility.yul\":2263:2264   */\n      0x00\n        /* \"#utility.yul\":2288:2341   */\n      tag_118\n        /* \"#utility.yul\":2333:2340   */\n      dup5\n        /* \"#utility.yul\":2324:2330   */\n      dup3\n        /* \"#utility.yul\":2313:2322   */\n      dup6\n        /* \"#utility.yul\":2309:2331   */\n      add\n        /* \"#utility.yul\":2288:2341   */\n      tag_80\n      jump\t// in\n    tag_118:\n        /* \"#utility.yul\":2278:2341   */\n      swap2\n      pop\n        /* \"#utility.yul\":2234:2351   */\n      pop\n        /* \"#utility.yul\":2029:2358   */\n      swap3\n      swap2\n      pop\n      pop\n      jump\t// out\n        /* \"#utility.yul\":2364:2544   */\n    tag_83:\n        /* \"#utility.yul\":2412:2489   */\n      0x4e487b7100000000000000000000000000000000000000000000000000000000\n        /* \"#utility.yul\":2409:2410   */\n      0x00\n        /* \"#utility.yul\":2402:2490   */\n      mstore\n        /* \"#utility.yul\":2509:2513   */\n      0x11\n        /* \"#utility.yul\":2506:2507   */\n      0x04\n        /* \"#utility.yul\":2499:2514   */\n      mstore\n        /* \"#utility.yul\":2533:2537   */\n      0x24\n        /* \"#utility.yul\":2530:2531   */\n      0x00\n        /* \"#utility.yul\":2523:2538   */\n      revert\n        /* \"#utility.yul\":2550:2960   */\n    tag_32:\n        /* \"#utility.yul\":2590:2597   */\n      0x00\n        /* \"#utility.yul\":2613:2633   */\n      tag_121\n        /* \"#utility.yul\":2631:2632   */\n      dup3\n        /* \"#utility.yul\":2613:2633   */\n      tag_72\n      jump\t// in\n    tag_121:\n        /* \"#utility.yul\":2608:2633   */\n      swap2\n      pop\n        /* \"#utility.yul\":2647:2667   */\n      tag_122\n        /* \"#utility.yul\":2665:2666   */\n      dup4\n        /* \"#utility.yul\":2647:2667   */\n      tag_72\n      jump\t// in\n    tag_122:\n        /* \"#utility.yul\":2642:2667   */\n      swap3\n      pop\n        /* \"#utility.yul\":2702:2703   */\n      dup3\n        /* \"#utility.yul\":2699:2700   */\n      dup3\n        /* \"#utility.yul\":2695:2704   */\n      mul\n        /* \"#utility.yul\":2724:2754   */\n      tag_123\n        /* \"#utility.yul\":2742:2753   */\n      dup2\n        /* \"#utility.yul\":2724:2754   */\n      tag_72\n      jump\t// in\n    tag_123:\n        /* \"#utility.yul\":2713:2754   */\n      swap2\n      pop\n        /* \"#utility.yul\":2903:2904   */\n      dup3\n        /* \"#utility.yul\":2894:2901   */\n      dup3\n        /* \"#utility.yul\":2890:2905   */\n      div\n        /* \"#utility.yul\":2887:2888   */\n      dup5\n        /* \"#utility.yul\":2884:2906   */\n      eq\n        /* \"#utility.yul\":2864:2865   */\n      dup4\n        /* \"#utility.yul\":2857:2866   */\n      iszero\n        /* \"#utility.yul\":2837:2920   */\n      or\n        /* \"#utility.yul\":2814:2953   */\n      tag_124\n      jumpi\n        /* \"#utility.yul\":2933:2951   */\n      tag_125\n      tag_83\n      jump\t// in\n    tag_125:\n        /* \"#utility.yul\":2814:2953   */\n    tag_124:\n        /* \"#utility.yul\":2598:2960   */\n      pop\n        /* \"#utility.yul\":2550:2960   */\n      swap3\n      swap2\n      pop\n      pop\n      jump\t// out\n        /* \"#utility.yul\":2966:3199   */\n    tag_36:\n        /* \"#utility.yul\":3005:3008   */\n      0x00\n        /* \"#utility.yul\":3028:3052   */\n      tag_127\n        /* \"#utility.yul\":3046:3051   */\n      dup3\n        /* \"#utility.yul\":3028:3052   */\n      tag_72\n      jump\t// in\n    tag_127:\n        /* \"#utility.yul\":3019:3052   */\n      swap2\n      pop\n        /* \"#utility.yul\":3074:3140   */\n      0xffffffffffffffffffffffffffffffffffffffffffffffffffffffffffffffff\n        /* \"#utility.yul\":3067:3072   */\n      dup3\n        /* \"#utility.yul\":3064:3141   */\n      sub\n        /* \"#utility.yul\":3061:3164   */\n      tag_128\n      jumpi\n        /* \"#utility.yul\":3144:3162   */\n      tag_129\n      tag_83\n      jump\t// in\n    tag_129:\n        /* \"#utility.yul\":3061:3164   */\n    tag_128:\n        /* \"#utility.yul\":3191:3192   */\n      0x01\n        /* \"#utility.yul\":3184:3189   */\n      dup3\n        /* \"#utility.yul\":3180:3193   */\n      add\n        /* \"#utility.yul\":3173:3193   */\n      swap1\n      pop\n        /* \"#utility.yul\":2966:3199   */\n      swap2\n      swap1\n      pop\n      jump\t// out\n        /* \"#utility.yul\":3205:3396   */\n    tag_38:\n        /* \"#utility.yul\":3245:3248   */\n      0x00\n        /* \"#utility.yul\":3264:3284   */\n      tag_131\n        /* \"#utility.yul\":3282:3283   */\n      dup3\n        /* \"#utility.yul\":3264:3284   */\n      tag_72\n      jump\t// in\n    tag_131:\n        /* \"#utility.yul\":3259:3284   */\n      swap2\n      pop\n        /* \"#utility.yul\":3298:3318   */\n      tag_132\n        /* \"#utility.yul\":3316:3317   */\n      dup4\n        /* \"#utility.yul\":3298:3318   */\n      tag_72\n      jump\t// in\n    tag_132:\n        /* \"#utility.yul\":3293:3318   */\n      swap3\n      pop\n        /* \"#utility.yul\":3341:3342   */\n      dup3\n        /* \"#utility.yul\":3338:3339   */\n      dup3\n        /* \"#utility.yul\":3334:3343   */\n      add\n        /* \"#utility.yul\":3327:3343   */\n      swap1\n      pop\n        /* \"#utility.yul\":3362:3365   */\n      dup1\n        /* \"#utility.yul\":3359:3360   */\n      dup3\n        /* \"#utility.yul\":3356:3366   */\n      gt\n        /* \"#utility.yul\":3353:3389   */\n      iszero\n      tag_133\n      jumpi\n        /* \"#utility.yul\":3369:3387   */\n      tag_134\n      tag_83\n      jump\t// in\n    tag_134:\n        /* \"#utility.yul\":3353:3389   */\n    tag_133:\n        /* \"#utility.yul\":3205:3396   */\n      swap3\n      swap2\n      pop\n      pop\n      jump\t// out\n        /* \"#utility.yul\":3402:3520   */\n    tag_84:\n        /* \"#utility.yul\":3489:3513   */\n      tag_136\n        /* \"#utility.yul\":3507:3512   */\n      dup2\n        /* \"#utility.yul\":3489:3513   */\n      tag_78\n      jump\t// in\n    tag_136:\n        /* \"#utility.yul\":3484:3487   */\n      dup3\n        /* \"#utility.yul\":3477:3514   */\n      mstore\n        /* \"#utility.yul\":3402:3520   */\n      pop\n      pop\n      jump\t// out\n        /* \"#utility.yul\":3526:3858   */\n    tag_40:\n        /* \"#utility.yul\":3647:3651   */\n      0x00\n        /* \"#utility.yul\":3685:3687   */\n      0x40\n        /* \"#utility.yul\":3674:3683   */\n      dup3\n        /* \"#utility.yul\":3670:3688   */\n      add\n        /* \"#utility.yul\":3662:3688   */\n      swap1\n      pop\n        /* \"#utility.yul\":3698:3769   */\n      tag_138\n        /* \"#utility.yul\":3766:3767   */\n      0x00\n        /* \"#utility.yul\":3755:3764   */\n      dup4\n        /* \"#utility.yul\":3751:3768   */\n      add\n        /* \"#utility.yul\":3742:3748   */\n      dup6\n        /* \"#utility.yul\":3698:3769   */\n      tag_84\n      jump\t// in\n    tag_138:\n        /* \"#utility.yul\":3779:3851   */\n      tag_139\n        /* \"#utility.yul\":3847:3849   */\n      0x20\n        /* \"#utility.yul\":3836:3845   */\n      dup4\n        /* \"#utility.yul\":3832:3850   */\n      add\n        /* \"#utility.yul\":3823:3829   */\n      dup5\n        /* \"#utility.yul\":3779:3851   */\n      tag_73\n      jump\t// in\n    tag_139:\n        /* \"#utility.yul\":3526:3858   */\n      swap4\n      swap3\n      pop\n      pop\n      pop\n      jump\t// out\n        /* \"#utility.yul\":3864:4058   */\n    tag_47:\n        /* \"#utility.yul\":3904:3908   */\n      0x00\n        /* \"#utility.yul\":3924:3944   */\n      tag_141\n        /* \"#utility.yul\":3942:3943   */\n      dup3\n        /* \"#utility.yul\":3924:3944   */\n      tag_72\n      jump\t// in\n    tag_141:\n        /* \"#utility.yul\":3919:3944   */\n      swap2\n      pop\n        /* \"#utility.yul\":3958:3978   */\n      tag_142\n        /* \"#utility.yul\":3976:3977   */\n      dup4\n        /* \"#utility.yul\":3958:3978   */\n      tag_72\n      jump\t// in\n    tag_142:\n        /* \"#utility.yul\":3953:3978   */\n      swap3\n      pop\n        /* \"#utility.yul\":4002:4003   */\n      dup3\n        /* \"#utility.yul\":3999:4000   */\n      dup3\n        /* \"#utility.yul\":3995:4004   */\n      sub\n        /* \"#utility.yul\":3987:4004   */\n      swap1\n      pop\n        /* \"#utility.yul\":4026:4027   */\n      dup2\n        /* \"#utility.yul\":4020:4024   */\n      dup2\n        /* \"#utility.yul\":4017:4028   */\n      gt\n        /* \"#utility.yul\":4014:4051   */\n      iszero\n      tag_143\n      jumpi\n        /* \"#utility.yul\":4031:4049   */\n      tag_144\n      tag_83\n      jump\t// in\n    tag_144:\n        /* \"#utility.yul\":4014:4051   */\n    tag_143:\n        /* \"#utility.yul\":3864:4058   */\n      swap3\n      swap2\n      pop\n      pop\n      jump\t// out\n        /* \"#utility.yul\":4064:4211   */\n    tag_85:\n        /* \"#utility.yul\":4165:4176   */\n      0x00\n        /* \"#utility.yul\":4202:4205   */\n      dup2\n        /* \"#utility.yul\":4187:4205   */\n      swap1\n      pop\n        /* \"#utility.yul\":4064:4211   */\n      swap3\n      swap2\n      pop\n      pop\n      jump\t// out\n        /* \"#utility.yul\":4217:4331   */\n    tag_86:\n      pop\n      jump\t// out\n        /* \"#utility.yul\":4337:4735   */\n    tag_87:\n        /* \"#utility.yul\":4496:4499   */\n      0x00\n        /* \"#utility.yul\":4517:4600   */\n      tag_148\n        /* \"#utility.yul\":4598:4599   */\n      0x00\n        /* \"#utility.yul\":4593:4596   */\n      dup4\n        /* \"#utility.yul\":4517:4600   */\n      tag_85\n      jump\t// in\n    tag_148:\n        /* \"#utility.yul\":4510:4600   */\n      swap2\n      pop\n        /* \"#utility.yul\":4609:4702   */\n      tag_149\n        /* \"#utility.yul\":4698:4701   */\n      dup3\n        /* \"#utility.yul\":4609:4702   */\n      tag_86\n      jump\t// in\n    tag_149:\n        /* \"#utility.yul\":4727:4728   */\n      0x00\n        /* \"#utility.yul\":4722:4725   */\n      dup3\n        /* \"#utility.yul\":4718:4729   */\n      add\n        /* \"#utility.yul\":4711:4729   */\n      swap1\n      pop\n        /* \"#utility.yul\":4337:4735   */\n      swap2\n      swap1\n      pop\n      jump\t// out\n        /* \"#utility.yul\":4741:5120   */\n    tag_51:\n        /* \"#utility.yul\":4925:4928   */\n      0x00\n        /* \"#utility.yul\":4947:5094   */\n      tag_151\n        /* \"#utility.yul\":5090:5093   */\n      dup3\n        /* \"#utility.yul\":4947:5094   */\n      tag_87\n      jump\t// in\n    tag_151:\n        /* \"#utility.yul\":4940:5094   */\n      swap2\n      pop\n        /* \"#utility.yul\":5111:5114   */\n      dup2\n        /* \"#utility.yul\":5104:5114   */\n      swap1\n      pop\n        /* \"#utility.yul\":4741:5120   */\n      swap2\n      swap1\n      pop\n      jump\t// out\n        /* \"#utility.yul\":5126:5297   */\n    tag_65:\n        /* \"#utility.yul\":5165:5168   */\n      0x00\n        /* \"#utility.yul\":5188:5212   */\n      tag_153\n        /* \"#utility.yul\":5206:5211   */\n      dup3\n        /* \"#utility.yul\":5188:5212   */\n      tag_72\n      jump\t// in\n    tag_153:\n        /* \"#utility.yul\":5179:5212   */\n      swap2\n      pop\n        /* \"#utility.yul\":5234:5238   */\n      0x00\n        /* \"#utility.yul\":5227:5232   */\n      dup3\n        /* \"#utility.yul\":5224:5239   */\n      sub\n        /* \"#utility.yul\":5221:5262   */\n      tag_154\n      jumpi\n        /* \"#utility.yul\":5242:5260   */\n      tag_155\n      tag_83\n      jump\t// in\n    tag_155:\n        /* \"#utility.yul\":5221:5262   */\n    tag_154:\n        /* \"#utility.yul\":5289:5290   */\n      0x01\n        /* \"#utility.yul\":5282:5287   */\n      dup3\n        /* \"#utility.yul\":5278:5291   */\n      sub\n        /* \"#utility.yul\":5271:5291   */\n      swap1\n      pop\n        /* \"#utility.yul\":5126:5297   */\n      swap2\n      swap1\n      pop\n      jump\t// out\n\n    auxdata: 0xa2646970667358221220b0583921d0794e428309d40664f3b069d5b539decbf96a882c1e42a727809b1964736f6c63430008140033\n}\n",
				"bytecode": {
					"linkReferences": {},
					"object": "6080604052670de0b6b3a764000060035534801561001b575f80fd5b50335f806101000a81548173ffffffffffffffffffffffffffffffffffffffff021916908373ffffffffffffffffffffffffffffffffffffffff160217905550610a33806100685f395ff3fe608060405260043610610049575f3560e01c8063364da4781461004d57806347e7ef241461007757806370a0823114610093578063f3fef3a3146100cf578063fa09e630146100f7575b5f80fd5b348015610058575f80fd5b5061006161011f565b60405161006e919061073a565b60405180910390f35b610091600480360381019061008c91906107db565b610125565b005b34801561009e575f80fd5b506100b960048036038101906100b49190610819565b61025c565b6040516100c6919061073a565b60405180910390f35b3480156100da575f80fd5b506100f560048036038101906100f091906107db565b6102a2565b005b348015610102575f80fd5b5061011d60048036038101906101189190610819565b6104ee565b005b60025481565b5f600354826101349190610871565b90505f810361016f576040517f6a37442800000000000000000000000000000000000000000000000000000000815260040160405180910390fd5b5f60015f8573ffffffffffffffffffffffffffffffffffffffff1673ffffffffffffffffffffffffffffffffffffffff1681526020019081526020015f2054036101cb5760025f8154809291906101c5906108b2565b91905055505b8060015f8573ffffffffffffffffffffffffffffffffffffffff1673ffffffffffffffffffffffffffffffffffffffff1681526020019081526020015f205f82825461021791906108f9565b925050819055507fe1fffcc4923d04b559f4d29a8bfc6cda04eb5b0d3c460751c2402c5c5cc9109c838260405161024f92919061093b565b60405180910390a1505050565b5f60015f8373ffffffffffffffffffffffffffffffffffffffff1673ffffffffffffffffffffffffffffffffffffffff1681526020019081526020015f20549050919050565b5f8054906101000a900473ffffffffffffffffffffffffffffffffffffffff1673ffffffffffffffffffffffffffffffffffffffff163373ffffffffffffffffffffffffffffffffffffffff1614610326576040517fa1441bed00000000000000000000000000000000000000000000000000000000815260040160405180910390fd5b5f600354826103359190610871565b90505f8160015f8673ffffffffffffffffffffffffffffffffffffffff1673ffffffffffffffffffffffffffffffffffffffff1681526020019081526020015f20546103819190610962565b106104b7578060015f8573ffffffffffffffffffffffffffffffffffffffff1673ffffffffffffffffffffffffffffffffffffffff1681526020019081526020015f205f8282546103d29190610962565b925050819055505f8373ffffffffffffffffffffffffffffffffffffffff16826040516103fe906109c2565b5f6040518083038185875af1925050503d805f8114610438576040519150601f19603f3d011682016040523d82523d5f602084013e61043d565b606091505b5050905080610478576040517f75b40f8a00000000000000000000000000000000000000000000000000000000815260040160405180910390fd5b7f884edad9ce6fa2440d8a54cc123490eb96d2768479d49ff9c7366125a942436484836040516104a992919061093b565b60405180910390a1506104e9565b6040517f3b18d12000000000000000000000000000000000000000000000000000000000815260040160405180910390fd5b505050565b6104f7816104fa565b50565b5f60025403610535576040517f646a6ae600000000000000000000000000000000000000000000000000000000815260040160405180910390fd5b5f60015f8373ffffffffffffffffffffffffffffffffffffffff1673ffffffffffffffffffffffffffffffffffffffff1681526020019081526020015f2054036105ab576040517f3b18d12000000000000000000000000000000000000000000000000000000000815260040160405180910390fd5b5f60015f8373ffffffffffffffffffffffffffffffffffffffff1673ffffffffffffffffffffffffffffffffffffffff1681526020019081526020015f205490505f60015f8473ffffffffffffffffffffffffffffffffffffffff1673ffffffffffffffffffffffffffffffffffffffff1681526020019081526020015f208190555060025f815480929190610640906109d6565b91905055505f8273ffffffffffffffffffffffffffffffffffffffff168260405161066a906109c2565b5f6040518083038185875af1925050503d805f81146106a4576040519150601f19603f3d011682016040523d82523d5f602084013e6106a9565b606091505b50509050806106e4576040517f75b40f8a00000000000000000000000000000000000000000000000000000000815260040160405180910390fd5b7f884edad9ce6fa2440d8a54cc123490eb96d2768479d49ff9c7366125a9424364838360405161071592919061093b565b60405180910390a1505050565b5f819050919050565b61073481610722565b82525050565b5f60208201905061074d5f83018461072b565b92915050565b5f80fd5b5f73ffffffffffffffffffffffffffffffffffffffff82169050919050565b5f61078082610757565b9050919050565b61079081610776565b811461079a575f80fd5b50565b5f813590506107ab81610787565b92915050565b6107ba81610722565b81146107c4575f80fd5b50565b5f813590506107d5816107b1565b92915050565b5f80604083850312156107f1576107f0610753565b5b5f6107fe8582860161079d565b925050602061080f858286016107c7565b9150509250929050565b5f6020828403121561082e5761082d610753565b5b5f61083b8482850161079d565b91505092915050565b7f4e487b71000000000000000000000000000000000000000000000000000000005f52601160045260245ffd5b5f61087b82610722565b915061088683610722565b925082820261089481610722565b915082820484148315176108ab576108aa610844565b5b5092915050565b5f6108bc82610722565b91507fffffffffffffffffffffffffffffffffffffffffffffffffffffffffffffffff82036108ee576108ed610844565b5b600182019050919050565b5f61090382610722565b915061090e83610722565b925082820190508082111561092657610925610844565b5b92915050565b61093581610776565b82525050565b5f60408201905061094e5f83018561092c565b61095b602083018461072b565b9392505050565b5f61096c82610722565b915061097783610722565b925082820390508181111561098f5761098e610844565b5b92915050565b5f81905092915050565b50565b5f6109ad5f83610995565b91506109b88261099f565b5f82019050919050565b5f6109cc826109a2565b9150819050919050565b5f6109e082610722565b91505f82036109f2576109f1610844565b5b60018203905091905056fea2646970667358221220b0583921d0794e428309d40664f3b069d5b539decbf96a882c1e42a727809b1964736f6c63430008140033",
					"opcodes": "PUSH1 0x80 PUSH1 0x40 MSTORE PUSH8 0xDE0B6B3A7640000 PUSH1 0x3 SSTORE CALLVALUE DUP1 ISZERO PUSH2 0x1B JUMPI PUSH0 DUP1 REVERT JUMPDEST POP CALLER PUSH0 DUP1 PUSH2 0x100 EXP DUP2 SLOAD DUP2 PUSH20 0xFFFFFFFFFFFFFFFFFFFFFFFFFFFFFFFFFFFFFFFF MUL NOT AND SWAP1 DUP4 PUSH20 0xFFFFFFFFFFFFFFFFFFFFFFFFFFFFFFFFFFFFFFFF AND MUL OR SWAP1 SSTORE POP PUSH2 0xA33 DUP1 PUSH2 0x68 PUSH0 CODECOPY PUSH0 RETURN INVALID PUSH1 0x80 PUSH1 0x40 MSTORE PUSH1 0x4 CALLDATASIZE LT PUSH2 0x49 JUMPI PUSH0 CALLDATALOAD PUSH1 0xE0 SHR DUP1 PUSH4 0x364DA478 EQ PUSH2 0x4D JUMPI DUP1 PUSH4 0x47E7EF24 EQ PUSH2 0x77 JUMPI DUP1 PUSH4 0x70A08231 EQ PUSH2 0x93 JUMPI DUP1 PUSH4 0xF3FEF3A3 EQ PUSH2 0xCF JUMPI DUP1 PUSH4 0xFA09E630 EQ PUSH2 0xF7 JUMPI JUMPDEST PUSH0 DUP1 REVERT JUMPDEST CALLVALUE DUP1 ISZERO PUSH2 0x58 JUMPI PUSH0 DUP1 REVERT JUMPDEST POP PUSH2 0x61 PUSH2 0x11F JUMP JUMPDEST PUSH1 0x40 MLOAD PUSH2 0x6E SWAP2 SWAP1 PUSH2 0x73A JUMP JUMPDEST PUSH1 0x40 MLOAD DUP1 SWAP2 SUB SWAP1 RETURN JUMPDEST PUSH2 0x91 PUSH1 0x4 DUP1 CALLDATASIZE SUB DUP2 ADD SWAP1 PUSH2 0x8C SWAP2 SWAP1 PUSH2 0x7DB JUMP JUMPDEST PUSH2 0x125 JUMP JUMPDEST STOP JUMPDEST CALLVALUE DUP1 ISZERO PUSH2 0x9E JUMPI PUSH0 DUP1 REVERT JUMPDEST POP PUSH2 0xB9 PUSH1 0x4 DUP1 CALLDATASIZE SUB DUP2 ADD SWAP1 PUSH2 0xB4 SWAP2 SWAP1 PUSH2 0x819 JUMP JUMPDEST PUSH2 0x25C JUMP JUMPDEST PUSH1 0x40 MLOAD PUSH2 0xC6 SWAP2 SWAP1 PUSH2 0x73A JUMP JUMPDEST PUSH1 0x40 MLOAD DUP1 SWAP2 SUB SWAP1 RETURN JUMPDEST CALLVALUE DUP1 ISZERO PUSH2 0xDA JUMPI PUSH0 DUP1 REVERT JUMPDEST POP PUSH2 0xF5 PUSH1 0x4 DUP1 CALLDATASIZE SUB DUP2 ADD SWAP1 PUSH2 0xF0 SWAP2 SWAP1 PUSH2 0x7DB JUMP JUMPDEST PUSH2 0x2A2 JUMP JUMPDEST STOP JUMPDEST CALLVALUE DUP1 ISZERO PUSH2 0x102 JUMPI PUSH0 DUP1 REVERT JUMPDEST POP PUSH2 0x11D PUSH1 0x4 DUP1 CALLDATASIZE SUB DUP2 ADD SWAP1 PUSH2 0x118 SWAP2 SWAP1 PUSH2 0x819 JUMP JUMPDEST PUSH2 0x4EE JUMP JUMPDEST STOP JUMPDEST PUSH1 0x2 SLOAD DUP2 JUMP JUMPDEST PUSH0 PUSH1 0x3 SLOAD DUP3 PUSH2 0x134 SWAP2 SWAP1 PUSH2 0x871 JUMP JUMPDEST SWAP1 POP PUSH0 DUP2 SUB PUSH2 0x16F JUMPI PUSH1 0x40 MLOAD PUSH32 0x6A37442800000000000000000000000000000000000000000000000000000000 DUP2 MSTORE PUSH1 0x4 ADD PUSH1 0x40 MLOAD DUP1 SWAP2 SUB SWAP1 REVERT JUMPDEST PUSH0 PUSH1 0x1 PUSH0 DUP6 PUSH20 0xFFFFFFFFFFFFFFFFFFFFFFFFFFFFFFFFFFFFFFFF AND PUSH20 0xFFFFFFFFFFFFFFFFFFFFFFFFFFFFFFFFFFFFFFFF AND DUP2 MSTORE PUSH1 0x20 ADD SWAP1 DUP2 MSTORE PUSH1 0x20 ADD PUSH0 KECCAK256 SLOAD SUB PUSH2 0x1CB JUMPI PUSH1 0x2 PUSH0 DUP2 SLOAD DUP1 SWAP3 SWAP2 SWAP1 PUSH2 0x1C5 SWAP1 PUSH2 0x8B2 JUMP JUMPDEST SWAP2 SWAP1 POP SSTORE POP JUMPDEST DUP1 PUSH1 0x1 PUSH0 DUP6 PUSH20 0xFFFFFFFFFFFFFFFFFFFFFFFFFFFFFFFFFFFFFFFF AND PUSH20 0xFFFFFFFFFFFFFFFFFFFFFFFFFFFFFFFFFFFFFFFF AND DUP2 MSTORE PUSH1 0x20 ADD SWAP1 DUP2 MSTORE PUSH1 0x20 ADD PUSH0 KECCAK256 PUSH0 DUP3 DUP3 SLOAD PUSH2 0x217 SWAP2 SWAP1 PUSH2 0x8F9 JUMP JUMPDEST SWAP3 POP POP DUP2 SWAP1 SSTORE POP PUSH32 0xE1FFFCC4923D04B559F4D29A8BFC6CDA04EB5B0D3C460751C2402C5C5CC9109C DUP4 DUP3 PUSH1 0x40 MLOAD PUSH2 0x24F SWAP3 SWAP2 SWAP1 PUSH2 0x93B JUMP JUMPDEST PUSH1 0x40 MLOAD DUP1 SWAP2 SUB SWAP1 LOG1 POP POP POP JUMP JUMPDEST PUSH0 PUSH1 0x1 PUSH0 DUP4 PUSH20 0xFFFFFFFFFFFFFFFFFFFFFFFFFFFFFFFFFFFFFFFF AND PUSH20 0xFFFFFFFFFFFFFFFFFFFFFFFFFFFFFFFFFFFFFFFF AND DUP2 MSTORE PUSH1 0x20 ADD SWAP1 DUP2 MSTORE PUSH1 0x20 ADD PUSH0 KECCAK256 SLOAD SWAP1 POP SWAP2 SWAP1 POP JUMP JUMPDEST PUSH0 DUP1 SLOAD SWAP1 PUSH2 0x100 EXP SWAP1 DIV PUSH20 0xFFFFFFFFFFFFFFFFFFFFFFFFFFFFFFFFFFFFFFFF AND PUSH20 0xFFFFFFFFFFFFFFFFFFFFFFFFFFFFFFFFFFFFFFFF AND CALLER PUSH20 0xFFFFFFFFFFFFFFFFFFFFFFFFFFFFFFFFFFFFFFFF AND EQ PUSH2 0x326 JUMPI PUSH1 0x40 MLOAD PUSH32 0xA1441BED00000000000000000000000000000000000000000000000000000000 DUP2 MSTORE PUSH1 0x4 ADD PUSH1 0x40 MLOAD DUP1 SWAP2 SUB SWAP1 REVERT JUMPDEST PUSH0 PUSH1 0x3 SLOAD DUP3 PUSH2 0x335 SWAP2 SWAP1 PUSH2 0x871 JUMP JUMPDEST SWAP1 POP PUSH0 DUP2 PUSH1 0x1 PUSH0 DUP7 PUSH20 0xFFFFFFFFFFFFFFFFFFFFFFFFFFFFFFFFFFFFFFFF AND PUSH20 0xFFFFFFFFFFFFFFFFFFFFFFFFFFFFFFFFFFFFFFFF AND DUP2 MSTORE PUSH1 0x20 ADD SWAP1 DUP2 MSTORE PUSH1 0x20 ADD PUSH0 KECCAK256 SLOAD PUSH2 0x381 SWAP2 SWAP1 PUSH2 0x962 JUMP JUMPDEST LT PUSH2 0x4B7 JUMPI DUP1 PUSH1 0x1 PUSH0 DUP6 PUSH20 0xFFFFFFFFFFFFFFFFFFFFFFFFFFFFFFFFFFFFFFFF AND PUSH20 0xFFFFFFFFFFFFFFFFFFFFFFFFFFFFFFFFFFFFFFFF AND DUP2 MSTORE PUSH1 0x20 ADD SWAP1 DUP2 MSTORE PUSH1 0x20 ADD PUSH0 KECCAK256 PUSH0 DUP3 DUP3 SLOAD PUSH2 0x3D2 SWAP2 SWAP1 PUSH2 0x962 JUMP JUMPDEST SWAP3 POP POP DUP2 SWAP1 SSTORE POP PUSH0 DUP4 PUSH20 0xFFFFFFFFFFFFFFFFFFFFFFFFFFFFFFFFFFFFFFFF AND DUP3 PUSH1 0x40 MLOAD PUSH2 0x3FE SWAP1 PUSH2 0x9C2 JUMP JUMPDEST PUSH0 PUSH1 0x40 MLOAD DUP1 DUP4 SUB DUP2 DUP6 DUP8 GAS CALL SWAP3 POP POP POP RETURNDATASIZE DUP1 PUSH0 DUP2 EQ PUSH2 0x438 JUMPI PUSH1 0x40 MLOAD SWAP2 POP PUSH1 0x1F NOT PUSH1 0x3F RETURNDATASIZE ADD AND DUP3 ADD PUSH1 0x40 MSTORE RETURNDATASIZE DUP3 MSTORE RETURNDATASIZE PUSH0 PUSH1 0x20 DUP5 ADD RETURNDATACOPY PUSH2 0x43D JUMP JUMPDEST PUSH1 0x60 SWAP2 POP JUMPDEST POP POP SWAP1 POP DUP1 PUSH2 0x478 JUMPI PUSH1 0x40 MLOAD PUSH32 0x75B40F8A00000000000000000000000000000000000000000000000000000000 DUP2 MSTORE PUSH1 0x4 ADD PUSH1 0x40 MLOAD DUP1 SWAP2 SUB SWAP1 REVERT JUMPDEST PUSH32 0x884EDAD9CE6FA2440D8A54CC123490EB96D2768479D49FF9C7366125A9424364 DUP5 DUP4 PUSH1 0x40 MLOAD PUSH2 0x4A9 SWAP3 SWAP2 SWAP1 PUSH2 0x93B JUMP JUMPDEST PUSH1 0x40 MLOAD DUP1 SWAP2 SUB SWAP1 LOG1 POP PUSH2 0x4E9 JUMP JUMPDEST PUSH1 0x40 MLOAD PUSH32 0x3B18D12000000000000000000000000000000000000000000000000000000000 DUP2 MSTORE PUSH1 0x4 ADD PUSH1 0x40 MLOAD DUP1 SWAP2 SUB SWAP1 REVERT JUMPDEST POP POP POP JUMP JUMPDEST PUSH2 0x4F7 DUP2 PUSH2 0x4FA JUMP JUMPDEST POP JUMP JUMPDEST PUSH0 PUSH1 0x2 SLOAD SUB PUSH2 0x535 JUMPI PUSH1 0x40 MLOAD PUSH32 0x646A6AE600000000000000000000000000000000000000000000000000000000 DUP2 MSTORE PUSH1 0x4 ADD PUSH1 0x40 MLOAD DUP1 SWAP2 SUB SWAP1 REVERT JUMPDEST PUSH0 PUSH1 0x1 PUSH0 DUP4 PUSH20 0xFFFFFFFFFFFFFFFFFFFFFFFFFFFFFFFFFFFFFFFF AND PUSH20 0xFFFFFFFFFFFFFFFFFFFFFFFFFFFFFFFFFFFFFFFF AND DUP2 MSTORE PUSH1 0x20 ADD SWAP1 DUP2 MSTORE PUSH1 0x20 ADD PUSH0 KECCAK256 SLOAD SUB PUSH2 0x5AB JUMPI PUSH1 0x40 MLOAD PUSH32 0x3B18D12000000000000000000000000000000000000000000000000000000000 DUP2 MSTORE PUSH1 0x4 ADD PUSH1 0x40 MLOAD DUP1 SWAP2 SUB SWAP1 REVERT JUMPDEST PUSH0 PUSH1 0x1 PUSH0 DUP4 PUSH20 0xFFFFFFFFFFFFFFFFFFFFFFFFFFFFFFFFFFFFFFFF AND PUSH20 0xFFFFFFFFFFFFFFFFFFFFFFFFFFFFFFFFFFFFFFFF AND DUP2 MSTORE PUSH1 0x20 ADD SWAP1 DUP2 MSTORE PUSH1 0x20 ADD PUSH0 KECCAK256 SLOAD SWAP1 POP PUSH0 PUSH1 0x1 PUSH0 DUP5 PUSH20 0xFFFFFFFFFFFFFFFFFFFFFFFFFFFFFFFFFFFFFFFF AND PUSH20 0xFFFFFFFFFFFFFFFFFFFFFFFFFFFFFFFFFFFFFFFF AND DUP2 MSTORE PUSH1 0x20 ADD SWAP1 DUP2 MSTORE PUSH1 0x20 ADD PUSH0 KECCAK256 DUP2 SWAP1 SSTORE POP PUSH1 0x2 PUSH0 DUP2 SLOAD DUP1 SWAP3 SWAP2 SWAP1 PUSH2 0x640 SWAP1 PUSH2 0x9D6 JUMP JUMPDEST SWAP2 SWAP1 POP SSTORE POP PUSH0 DUP3 PUSH20 0xFFFFFFFFFFFFFFFFFFFFFFFFFFFFFFFFFFFFFFFF AND DUP3 PUSH1 0x40 MLOAD PUSH2 0x66A SWAP1 PUSH2 0x9C2 JUMP JUMPDEST PUSH0 PUSH1 0x40 MLOAD DUP1 DUP4 SUB DUP2 DUP6 DUP8 GAS CALL SWAP3 POP POP POP RETURNDATASIZE DUP1 PUSH0 DUP2 EQ PUSH2 0x6A4 JUMPI PUSH1 0x40 MLOAD SWAP2 POP PUSH1 0x1F NOT PUSH1 0x3F RETURNDATASIZE ADD AND DUP3 ADD PUSH1 0x40 MSTORE RETURNDATASIZE DUP3 MSTORE RETURNDATASIZE PUSH0 PUSH1 0x20 DUP5 ADD RETURNDATACOPY PUSH2 0x6A9 JUMP JUMPDEST PUSH1 0x60 SWAP2 POP JUMPDEST POP POP SWAP1 POP DUP1 PUSH2 0x6E4 JUMPI PUSH1 0x40 MLOAD PUSH32 0x75B40F8A00000000000000000000000000000000000000000000000000000000 DUP2 MSTORE PUSH1 0x4 ADD PUSH1 0x40 MLOAD DUP1 SWAP2 SUB SWAP1 REVERT JUMPDEST PUSH32 0x884EDAD9CE6FA2440D8A54CC123490EB96D2768479D49FF9C7366125A9424364 DUP4 DUP4 PUSH1 0x40 MLOAD PUSH2 0x715 SWAP3 SWAP2 SWAP1 PUSH2 0x93B JUMP JUMPDEST PUSH1 0x40 MLOAD DUP1 SWAP2 SUB SWAP1 LOG1 POP POP POP JUMP JUMPDEST PUSH0 DUP2 SWAP1 POP SWAP2 SWAP1 POP JUMP JUMPDEST PUSH2 0x734 DUP2 PUSH2 0x722 JUMP JUMPDEST DUP3 MSTORE POP POP JUMP JUMPDEST PUSH0 PUSH1 0x20 DUP3 ADD SWAP1 POP PUSH2 0x74D PUSH0 DUP4 ADD DUP5 PUSH2 0x72B JUMP JUMPDEST SWAP3 SWAP2 POP POP JUMP JUMPDEST PUSH0 DUP1 REVERT JUMPDEST PUSH0 PUSH20 0xFFFFFFFFFFFFFFFFFFFFFFFFFFFFFFFFFFFFFFFF DUP3 AND SWAP1 POP SWAP2 SWAP1 POP JUMP JUMPDEST PUSH0 PUSH2 0x780 DUP3 PUSH2 0x757 JUMP JUMPDEST SWAP1 POP SWAP2 SWAP1 POP JUMP JUMPDEST PUSH2 0x790 DUP2 PUSH2 0x776 JUMP JUMPDEST DUP2 EQ PUSH2 0x79A JUMPI PUSH0 DUP1 REVERT JUMPDEST POP JUMP JUMPDEST PUSH0 DUP2 CALLDATALOAD SWAP1 POP PUSH2 0x7AB DUP2 PUSH2 0x787 JUMP JUMPDEST SWAP3 SWAP2 POP POP JUMP JUMPDEST PUSH2 0x7BA DUP2 PUSH2 0x722 JUMP JUMPDEST DUP2 EQ PUSH2 0x7C4 JUMPI PUSH0 DUP1 REVERT JUMPDEST POP JUMP JUMPDEST PUSH0 DUP2 CALLDATALOAD SWAP1 POP PUSH2 0x7D5 DUP2 PUSH2 0x7B1 JUMP JUMPDEST SWAP3 SWAP2 POP POP JUMP JUMPDEST PUSH0 DUP1 PUSH1 0x40 DUP4 DUP6 SUB SLT ISZERO PUSH2 0x7F1 JUMPI PUSH2 0x7F0 PUSH2 0x753 JUMP JUMPDEST JUMPDEST PUSH0 PUSH2 0x7FE DUP6 DUP3 DUP7 ADD PUSH2 0x79D JUMP JUMPDEST SWAP3 POP POP PUSH1 0x20 PUSH2 0x80F DUP6 DUP3 DUP7 ADD PUSH2 0x7C7 JUMP JUMPDEST SWAP2 POP POP SWAP3 POP SWAP3 SWAP1 POP JUMP JUMPDEST PUSH0 PUSH1 0x20 DUP3 DUP5 SUB SLT ISZERO PUSH2 0x82E JUMPI PUSH2 0x82D PUSH2 0x753 JUMP JUMPDEST JUMPDEST PUSH0 PUSH2 0x83B DUP5 DUP3 DUP6 ADD PUSH2 0x79D JUMP JUMPDEST SWAP2 POP POP SWAP3 SWAP2 POP POP JUMP JUMPDEST PUSH32 0x4E487B7100000000000000000000000000000000000000000000000000000000 PUSH0 MSTORE PUSH1 0x11 PUSH1 0x4 MSTORE PUSH1 0x24 PUSH0 REVERT JUMPDEST PUSH0 PUSH2 0x87B DUP3 PUSH2 0x722 JUMP JUMPDEST SWAP2 POP PUSH2 0x886 DUP4 PUSH2 0x722 JUMP JUMPDEST SWAP3 POP DUP3 DUP3 MUL PUSH2 0x894 DUP2 PUSH2 0x722 JUMP JUMPDEST SWAP2 POP DUP3 DUP3 DIV DUP5 EQ DUP4 ISZERO OR PUSH2 0x8AB JUMPI PUSH2 0x8AA PUSH2 0x844 JUMP JUMPDEST JUMPDEST POP SWAP3 SWAP2 POP POP JUMP JUMPDEST PUSH0 PUSH2 0x8BC DUP3 PUSH2 0x722 JUMP JUMPDEST SWAP2 POP PUSH32 0xFFFFFFFFFFFFFFFFFFFFFFFFFFFFFFFFFFFFFFFFFFFFFFFFFFFFFFFFFFFFFFFF DUP3 SUB PUSH2 0x8EE JUMPI PUSH2 0x8ED PUSH2 0x844 JUMP JUMPDEST JUMPDEST PUSH1 0x1 DUP3 ADD SWAP1 POP SWAP2 SWAP1 POP JUMP JUMPDEST PUSH0 PUSH2 0x903 DUP3 PUSH2 0x722 JUMP JUMPDEST SWAP2 POP PUSH2 0x90E DUP4 PUSH2 0x722 JUMP JUMPDEST SWAP3 POP DUP3 DUP3 ADD SWAP1 POP DUP1 DUP3 GT ISZERO PUSH2 0x926 JUMPI PUSH2 0x925 PUSH2 0x844 JUMP JUMPDEST JUMPDEST SWAP3 SWAP2 POP POP JUMP JUMPDEST PUSH2 0x935 DUP2 PUSH2 0x776 JUMP JUMPDEST DUP3 MSTORE POP POP JUMP JUMPDEST PUSH0 PUSH1 0x40 DUP3 ADD SWAP1 POP PUSH2 0x94E PUSH0 DUP4 ADD DUP6 PUSH2 0x92C JUMP JUMPDEST PUSH2 0x95B PUSH1 0x20 DUP4 ADD DUP5 PUSH2 0x72B JUMP JUMPDEST SWAP4 SWAP3 POP POP POP JUMP JUMPDEST PUSH0 PUSH2 0x96C DUP3 PUSH2 0x722 JUMP JUMPDEST SWAP2 POP PUSH2 0x977 DUP4 PUSH2 0x722 JUMP JUMPDEST SWAP3 POP DUP3 DUP3 SUB SWAP1 POP DUP2 DUP2 GT ISZERO PUSH2 0x98F JUMPI PUSH2 0x98E PUSH2 0x844 JUMP JUMPDEST JUMPDEST SWAP3 SWAP2 POP POP JUMP JUMPDEST PUSH0 DUP2 SWAP1 POP SWAP3 SWAP2 POP POP JUMP JUMPDEST POP JUMP JUMPDEST PUSH0 PUSH2 0x9AD PUSH0 DUP4 PUSH2 0x995 JUMP JUMPDEST SWAP2 POP PUSH2 0x9B8 DUP3 PUSH2 0x99F JUMP JUMPDEST PUSH0 DUP3 ADD SWAP1 POP SWAP2 SWAP1 POP JUMP JUMPDEST PUSH0 PUSH2 0x9CC DUP3 PUSH2 0x9A2 JUMP JUMPDEST SWAP2 POP DUP2 SWAP1 POP SWAP2 SWAP1 POP JUMP JUMPDEST PUSH0 PUSH2 0x9E0 DUP3 PUSH2 0x722 JUMP JUMPDEST SWAP2 POP PUSH0 DUP3 SUB PUSH2 0x9F2 JUMPI PUSH2 0x9F1 PUSH2 0x844 JUMP JUMPDEST JUMPDEST PUSH1 0x1 DUP3 SUB SWAP1 POP SWAP2 SWAP1 POP JUMP INVALID LOG2 PUSH5 0x6970667358 0x22 SLT KECCAK256 0xB0 PC CODECOPY 0x21 0xD0 PUSH26 0x4E428309D40664F3B069D5B539DECBF96A882C1E42A727809B19 PUSH5 0x736F6C6343 STOP ADDMOD EQ STOP CALLER "
				},
				"gasEstimates": {
					"creation": {
						"codeDepositCost": "522200",
						"executionCost": "46925",
						"totalCost": "569125"
					},
					"external": {
						"balanceOf(address)": "2851",
						"deposit(address,uint256)": "infinite",
						"usersInVault()": "2403",
						"withdraw(address,uint256)": "infinite",
						"withdrawAll(address)": "infinite"
					},
					"internal": {
						"_removeUser(address)": "infinite"
					}
				},
				"methodIdentifiers": {
					"balanceOf(address)": "70a08231",
					"deposit(address,uint256)": "47e7ef24",
					"usersInVault()": "364da478",
					"withdraw(address,uint256)": "f3fef3a3",
					"withdrawAll(address)": "fa09e630"
				}
			},
			"storageLayout": {
				"storage": [
					{
						"astId": 16,
						"contract": "Contracts/BasicVault.sol:BasicVault",
						"label": "OWNER",
						"offset": 0,
						"slot": "0",
						"type": "t_address"
					},
					{
						"astId": 20,
						"contract": "Contracts/BasicVault.sol:BasicVault",
						"label": "balances",
						"offset": 0,
						"slot": "1",
						"type": "t_mapping(t_address,t_uint256)"
					},
					{
						"astId": 22,
						"contract": "Contracts/BasicVault.sol:BasicVault",
						"label": "usersInVault",
						"offset": 0,
						"slot": "2",
						"type": "t_uint256"
					},
					{
						"astId": 25,
						"contract": "Contracts/BasicVault.sol:BasicVault",
						"label": "ETH",
						"offset": 0,
						"slot": "3",
						"type": "t_uint256"
					}
				],
				"types": {
					"t_address": {
						"encoding": "inplace",
						"label": "address",
						"numberOfBytes": "20"
					},
					"t_mapping(t_address,t_uint256)": {
						"encoding": "mapping",
						"key": "t_address",
						"label": "mapping(address => uint256)",
						"numberOfBytes": "32",
						"value": "t_uint256"
					},
					"t_uint256": {
						"encoding": "inplace",
						"label": "uint256",
						"numberOfBytes": "32"
					}
				}
			},
			"userdoc": {
				"kind": "user",
				"methods": {},
				"version": 1
			}
		}
	}
}